S0160000436C617373696669636174696F6E2E7372656362
S113000071C000004EC3000043C70000B0C300002D
S1130010B5C1000087C0000085C0000083C0000097
S113002081C000007FC000007DC000007BC00000D4
S113003079C0000077C0000075C0000073C00000E4
S113004071C000006FC000006DC000006BC00000F4
S113005069C0000067C0000065C0000063C0000004
S113006061C000005FC000005DC000005BC0000014
S113007059C0000094C1000055C0000053C00000E6
S113008051C0000049C200004DC000004BC0000038
S113009049C0000047C0000045C0000043C0000044
S11300A041C000003FC000003DC000003BC0000054
S11300B039C0000037C0000035C0000033C0000064
S11300C031C000002FC000002DC000002BC0000074
S11300D029C0000027C0000025C0000023C0000084
S11300E021C0000011241FBECFEFD1E2DEBFCDBF7F
S11300F000E00CBF13E0A0E0B2E0E8EBF1E100E0C7
S11301000BBF02C007900D92A437B107D9F723E0C3
S1130110A4E7B3E001C01D92AD39B207E1F7EBD516
S11301200C94DA085FC287B1807F87B988B1806296
S113013088B988B18F7B88B982E08A95F1F700C0CD
S113014088B1806888B992E09A95F1F700C086B1C9
S11301508295807F92E09A95F1F700C098B19F77DD
S113016098B995E09A95F1F7000098B1906898B91C
S113017092E09A95F1F700C096B1807892E09A9552
S1130180F1F700C098B19F7798B995E09A95F1F787
S113019000008111D5CF88B18F7D88B987B18F6078
S11301A087B90895282F22952F708F70611104C08C
S11301B098B19F7B98B903C098B1906498B992E0C4
S11301C09A95F1F700C098B1906898B998B1907F6A
S11301D0922B98B995E09A95F1F7000098B19F7722
S11301E098B995E09A95F1F7000098B1906898B99C
S11301F098B1907F892B88B985E08A95F1F7000042
S113020088B18F7788B995E09A95F1F700008BCF84
S11302100895CF93C82F2FEF86E791E021508040B7
S11302209040E1F700C0000087B18F6087B987B1C3
S1130230806887B987B1806487B987B1806287B9DC
S113024088B1807F88B988B18F7788B988B18F7D6C
S113025088B988B18F7B88B900C000C0000088B11C
S1130260806888B988B1826088B925E02A95F1F759
S1130270000088B18F7788B985E08A95F1F700008E
S113028052DF60E08C2F8C608DDF60E088E28ADFD3
S1130290CF910895CF93DF93EC0103C061E082DF37
S11302A0219688818111FACFDF91CF910895EF9241
S11302B0FF920F931F93CF93DF9300D01F921F924F
S11302C0CDB7DEB77B01FE01319625E0DF011D923B
S11302D02A95E9F724E030E00EC06AE070E022D607
S11302E0E1E0F0E0EC0FFD1FE20FF31F8083862FA7
S11302F0972F21503109009781F7BFEFEB16FB06CA
S113030081F403C00F5F1F4F02C000E010E0E1E082
S1130310F0E0EC0FFD1FE00FF11F2081222391F389
S113032004C005E010E00E191F09992384F461E06C
S11303308DE238DF0CC0E1E0F0E0EC0FFD1FE00FD0
S1130340F11F808161E0805D2DDF0F5F1F4F05305D
S113035011058CF30F900F900F900F900F90DF9179
S1130360CF911F910F91FF90EF900895883228F458
S11303706111806460E0806815CF08951F920F9228
S11303800FB60F9211248F934B9B03C083E080938D
S11303908C038F910F900FBE0F901F9018951F9292
S11303A00F920FB60F9211240BB60F922F933F9317
S11303B08F939F93EF93FF938091780090917900AE
S11303C09093850380938403209184033091850363
S11303D080919703909198032817390740F48091EE
S11303E084039091850390939803809397034A9B89
S11303F006C0EAE7F0E080818064808380C0809159
S11304007603909177030196909377038093760314
S113041020913A0330913B03809197039091980384
S11304208217930798F020913C0330913D0380910B
S11304309703909198032817390740F0E0919303AC
S1130440F091940380913803808359C0209146032E
S113045030914703809197039091980382179307F3
S113046098F020914803309149038091970390912B
S113047098032817390740F0E0919303F09194030F
S11304808091440380833BC0209134033091350331
S113049080919703909198038217930798F0209185
S11304A0360330913703809197039091980328176E
S11304B0390740F0E0919303F09194038091320363
S11304C080831DC0209140033091410380919703A4
S11304D0909198038217930790F0209142033091F2
S11304E0430380919703909198032817390738F0B4
S11304F0E0919303F091940380913E038083FF91F4
S1130500EF919F918F913F912F910F900BBE0F9080
S11305100FBE0F901F9018951F920F920FB60F9257
S113052011248F939F9381E090E0909375038093BF
S113053074039F918F910F900FBE0F901F90189589
S11305408DB38F608DBBE9E6F0E0808183608083AA
S11305508081886080838081806380838081806CD7
S113056080838CB384608CBB089584B5836084BD20
S113057084B5806884BD85B5826085BD80E987BD0A
S11305800895EAE7F0E08081806880838081886054
S11305908083ACE7B0E08C9180648C938081876029
S11305A080830895E1E8F0E020812860208328EE2C
S11305B033E03093890020938800109285001092D4
S11305C0840026B3226026BB20E030E007C0B19B44
S11305D005C046B3426046BB2F5F3F4F281739071B
S11305E0B4F308951F920F920FB60F9211240BB615
S11305F00F922F933F934F935F936F937F938F93B8
S11306009F93AF93BF93EF93FF9360E081E0CADDC4
S113061060E080E0ABDE8CE493E03CDE88EE93E0C7
S1130620C1DFFF91EF91BF91AF919F918F917F9126
S11306306F915F914F913F912F910F900BBE0F904F
S11306400FBE0F901F90189583E0E3DD60E081E01A
S1130650A9DD60E080E08ADE84E593E01BDE88EEBD
S113066093E0A0DF60E081E09DCD0895E1E9F0E052
S113067080818860808380E094E690939B008093DF
S11306809A001092950010929400A1E7B0E08C912A
S113069084608C938C9184608C938081856080834A
S11306A008951F920F920FB60F9211240BB60F925A
S11306B02F933F934F935F936F937F938F939F9366
S11306C0AF93BF93EF93FF9384E190E06BDF489B7C
S11306D003C084EC99E0CADF489BFECF84E190E03C
S11306E061DFFF91EF91BF91AF919F918F917F91C6
S11306F06F915F914F913F912F910F900BBE0F908F
S11307000FBE0F901F901895FC0111821082FB01FF
S1130710118210820895CF93DF93EC0184E090E07E
S113072028D499838883FC0113821282DF91CF91AC
S11307300895DB01ED91FC91309761F0DA018D9120
S11307409C911197938382838D919C91FB0191835A
S113075080830895DA012D913C911197FC01318336
S113076020838D919C91DB018D939C9308951F921E
S11307700F920FB60F9211240BB60F922F933F9343
S11307804F935F936F937F938F939F93AF93BF9395
S1130790EF93FF934A9B15C08FEF93E090939803D8
S11307A08093970383E993E0B6DF43E953E068E875
S11307B073E08AE893E0BDDFEAE7F0E080818064DB
S11307C08083FF91EF91BF91AF919F918F917F9122
S11307D06F915F914F913F912F910F900BBE0F90AE
S11307E00FBE0F901F901895FC0180819181DA0152
S11307F08D939C93A081B181109731F012968D91C5
S11308009C9113979183808380819181892B19F422
S1130810FB01118210820895FC012081318181E065
S1130820232B09F080E00895DC01ED91FC9180E038
S113083090E004C001960280F381E02D3097D1F757
S113084008950F931F93CF93DF938C018233910507
S113085009F059C051C08091820390918303813083
S11308609105C1F030F08230910529F10397A1F18F
S113087041C08BE282B981E090E09093830380933E
S11308808203FE01EE0FFF1FE253FD4F8081918131
S113089089DE30C08BE182B982E090E090938303DB
S11308A080938203FE01EE0FFF1FE253FD4F808110
S11308B0918178DE1FC08DE182B983E090E090934E
S11308C0830380938203FE01EE0FFF1FE253FD4F6B
S11308D08081918167DE0EC08DE282B9109283031C
S11308E010928203FE01EE0FFF1FE253FD4F808141
S11308F0918158DE219602C0C0E0D0E0C017D10734
S11309000CF4A9CF5CC08436910509F058C051C0DD
S1130910809182039091830381309105C1F030F07E
S11309208230910529F10397A1F141C08BE282B98C
S113093081E090E09093830380938203FE01EE0FA5
S1130940FF1FEA5FFD4F808191812CDE30C08BE177
S113095082B982E090E09093830380938203FE0146
S1130960EE0FFF1FEA5FFD4F808191811BDE1FC0E8
S11309708DE182B983E090E09093830380938203B6
S1130980FE01EE0FFF1FEA5FFD4F808191810ADEB9
S11309900EC08DE282B91092830310928203FE018D
S11309A0EE0FFF1FEA5FFD4F80819181FBDD2196F1
S11309B002C0C0E0D0E0C017D1070CF4A9CFDF918A
S11309C0CF911F910F9108950F931F93CF93DF93AE
S11309D08C018233910509F059C051C08091820382
S11309E09091830381309105C1F030F082309105FC
S11309F019F1039791F141C08DE182B983E090E050
S1130A009093830380938203FE01EE0FFF1FE25352
S1130A10FD4F80819181C6DD30C08DE282B9109294
S1130A20830310928203FE01EE0FFF1FE253FD4F7A
S1130A3080819181B7DD21C08BE282B981E090E0B1
S1130A409093830380938203FE01EE0FFF1FE25312
S1130A50FD4F80819181A6DD10C08BE182B982E0D7
S1130A6090E09093830380938203FE01EE0FFF1FB7
S1130A70E253FD4F8081918195DD219602C0C0E053
S1130A80D0E0C017D1070CF4A9CF5CC0843691051F
S1130A9009F058C051C08091820390918303813042
S1130AA09105C1F030F08230910519F1039791F16D
S1130AB041C08DE182B983E090E0909383038093F9
S1130AC08203FE01EE0FFF1FEA5FFD4F80819181DB
S1130AD069DD30C08DE282B91092830310928203E3
S1130AE0FE01EE0FFF1FEA5FFD4F808191815ADD09
S1130AF021C08BE282B981E090E0909383038093DC
S1130B008203FE01EE0FFF1FEA5FFD4F808191819A
S1130B1049DD10C08BE182B982E090E090938303B9
S1130B2080938203FE01EE0FFF1FEA5FFD4F808179
S1130B30918138DD219602C0C0E0D0E0C017D10712
S1130B400CF4A9CFDF91CF911F910F910895EF92EB
S1130B50FF920F931F93CF93DF938C01C0E0D0E0FB
S1130B600F2EF4E1EF2EF12CF02D47C0809182037B
S1130B70909183038130910591F030F0823091059A
S1130B80B9F0039701F129C08DE182B983E090E0C7
S1130B909093830380938203C70104DD1EC08DE21A
S1130BA082B91092830310928203C701FBDC15C043
S1130BB08BE282B981E090E0909383038093820377
S1130BC0C701F0DC0AC08BE182B982E090E0909327
S1130BD0830380938203C701E5DCC630D10524F486
S1130BE082E0E81AF10808C0C80106978C179D072F
S1130BF01CF482E0E80EF11C2196C017D1070CF416
S1130C00B5CFDF91CF911F910F91FF90EF90089591
S1130C1060E081E0C7DA60E080E0A8DB84E693E08E
S1130C2039DB61E080E0A2DBE0914403F09145030D
S1130C30EE0FFF1FE858FC4F8081918162E070E065
S1130C4036DB60E083E092DB87E693E023DB61E060
S1130C5083E08CDBE0913E03F0913F03EE0FFF1F36
S1130C60E858FC4F8081918162E070E020DB60E015
S1130C7086E07CDB8AE693E00DDB61E086E076DBF0
S1130C80E0913803F0913903EE0FFF1FE858FC4F51
S1130C908081918162E070E00ADB60E089E066DBDC
S1130CA08DE693E0F7DA61E089E060DBE0913203FE
S1130CB0F0913303EE0FFF1FE858FC4F80819181C0
S1130CC062E070E0F4DA8091740390917503892BEB
S1130CD089F460E08CE04ADB80E793E0DBDA61E0F2
S1130CE08CE044DB68E873E08AE893E09DDD62E031
S1130CF070E0DDCA0895E1E6F0E080E8808381E0F9
S1130D0080838FEF81B984B910BA1AB810920A019E
S1130D10F894E1E8F0E080818260808395DC10DC67
S1130D2024DC2FDC789410928703109286031092AF
S1130D3094031092930368E873E08AE893E0E4DC98
S1130D408FEF93E0909398038093970310928C0312
S1130D50109283031092820303C081E090E0F7DED7
S1130D608091090180FDF9CF88E090E0F0DE8EE00B
S1130D7085B910928E0310928D0380917403909123
S1130D807503019781F48AE893E046DD882359F0DE
S1130D9088EE93E007DC8FE085B98AE090E002DC1E
S1130DA015B836DFFFCF80918C03833021F0853076
S1130DB009F46BC0E2CFE0918A03F0918B03808148
S1130DC090E0909392038093910346E853E068E89F
S1130DD073E08AE893E008DD8091860390918703AD
S1130DE060D18FE085B980918D0390918E0320911D
S1130DF0910330919203821B930B83309105C1F0D0
S1130E0030F48130910551F00297E1F024C08E3F17
S1130E102FEF9207B9F060F40396E9F48EE190E0C5
S1130E20C1DB82E390E00DDD84E190E0BBDB13C025
S1130E308EE190E0B7DB82E390E0C6DD84E190E0F0
S1130E40B1DB09C08EE190E0ADDB84E690E0F9DC33
S1130E5084E190E0A7DB80919103909192039093B9
S1130E608E0380938D03E0919103F0919203EE0F32
S1130E70FF1FE858FC4F8081918101969183808304
S1130E808EE085B910928C0378CF80E090E00895CD
S1130E901F920F920FB60F9211240BB60F922F933D
S1130EA03F934F935F936F937F938F939F93AF93EE
S1130EB0BF93EF93FF9349991DC084E190E072DBE7
S1130EC080914A0390914B03009751F0019791F45C
S1130ED08FE085B910924B0310924A0399DE0AC041
S1130EE08EE085B981E090E090934B0380934A03B0
S1130EF060E058D9499BFECF84E190E053DBFF9139
S1130F00EF91BF91AF919F918F917F916F915F917D
S1130F104F913F912F910F900BBE0F900FBE0F90EA
S1130F201F90189597FB072E16F4009406D077FDB2
S1130F3008D00BD007FC05D03EF4909581959F4FC7
S1130F400895709561957F4F0895AA1BBB1B51E1CD
S1130F5007C0AA1FBB1FA617B70710F0A61BB70B25
S1130F60881F991F5A95A9F780959095BC01CD01CA
S1130F7008950F931F93CF93DF938230910510F45C
S1130F8082E090E0E0919B03F0919C0320E030E04C
S1130F90A0E0B0E0309719F14081518102811381C2
S1130FA048175907C8F08417950769F4109731F06A
S1130FB012960C93129713961C9327C000939B03CD
S1130FC010939C0322C02115310519F042175307D1
S1130FD018F49A01BD01EF01DF01F801DBCF2115FF
S1130FE03105F9F0281B390B2430310580F48A814E
S1130FF09B816115710521F0FB019383828304C0F9
S113100090939C0380939B03FE01329644C0FE019F
S1131010E20FF31F8193919322503109398328837E
S11310203AC02091990330919A03232B41F42091E3
S113103002023091030230939A0320939903209182
S11310400002309101022115310541F42DB73EB75C
S11310504091040250910502241B350BE091990341
S1131060F0919A03E217F307A0F42E1B3F0B281705
S1131070390778F0AC014E5F5F4F2417350748F00D
S11310804E0F5F1F50939A0340939903819391935A
S113109002C0E0E0F0E0CF01DF91CF911F910F910A
S11310A00895CF93DF93009709F481C0FC01329730
S11310B013821282A0919B03B0919C03109781F438
S11310C020813181820F931F2091990330919A03DB
S11310D02817390751F5F0939A03E093990367C0F1
S11310E0ED0120E030E0CE17DF0740F44A815B8158
S11310F09E0141155105F1F0EA01F5CFD383C28376
S113110040815181840F951FC817D90759F48881EC
S11311109981840F951F0296918380838A819B8194
S1131120938382832115310529F4F0939C03E09382
S11311309B033DC0E901FB83EA8349915991C40FA4
S1131140D51FEC17FD0761F480819181840F951FF1
S11311500296E90199838883828193819B838A83A0
S1131160E0E0F0E012968D919C911397009719F0AE
S1131170FD01DC01F7CF8D919C9111979D012E5FAC
S11311803F4F820F931F2091990330919A032817A0
S1131190390769F4309729F410929C0310929B0349
S11311A002C013821282B0939A03A0939903DF9131
S10B11B0CF910895F894FFCFDC
S11311B800009D0320000F000D0009000700070030
S11311C807000700070007000700070007000700DB
S11311D807000700070007000700070007000700CB
S11311E807000700070007000700070007000700BB
S11311F807000700070007000700070007000700AB
S1131208070007000700070007000700070007009A
S1131218070007000700070007000700070007008A
S1131228070007000700070007000700070007007A
S1131238070007000700070007000700070007006A
S1131248070007000700070007000700070007005A
S1131258070007000700070007000700070007004A
S1131268070007000700070007000700070007003A
S1131278070007000700070009000D000F000F0012
S11312880D00090007000700070007000700070012
S1131298070007000700070007000700070007000A
S11312A807000700070007000700070007000700FA
S11312B807000700070007000700070007000700EA
S11312C807000700070007000700070007000700DA
S11312D807000700070007000700070009000D00C2
S11312E80F000300000096000200EF02AE030100A5
S11312F89700EE020000AF03FF03010042414420BF
S113130849535200696E697469616C697A696E67D8
S11313182E2E2E00424B00535400575400414C00CB
S10713285553000015
S9030000FC
